:100F7C00C02F0900031383168601FF3085008312EE
:100F8C0006309F008601F1270718CD2FDF2F860131
:100F9C000614F1278614F1270615F1278615F1277B
:100FAC000616F1278616F1270617F1278617F12763
:100FBC00C92F86018617F1270617F1278616F12708
:100FCC000616F1278615F1270615F1278614F12749
:100FDC000614F127C92FFF30A000A00BF62F080034
:100FEC00FF30A100A10BFB2FF32FFF30A200A20BAF
:040FFC00F82FFD2F9E
:02400E00BA3FB7
:00000001FF
